:020000040800F2
:100000006006002039020008770200087902000823
:100010007B0200087D0200087F020008000000004B
:100020000000000000000000000000008102000845
:100030008302000800000000850200088702000813
:100040008902000889020008890200088902000864
:100050008902000889020008890200088902000854
:100060008902000889020008890200088902000844
:100070008902000889020008890200088902000834
:100080008902000889020008890200088902000824
:100090008902000889020008890200088902000814
:1000A0008902000889020008890200088902000804
:1000B00089020008890200088902000889020008F4
:1000C00089020008890200088902000889020008E4
:1000D00089020008890200088902000889020008D4
:1000E00089020008890200088902000889020008C4
:1000F00089020008890200088902000889020008B4
:1001000089020008890200088902000889020008A3
:100110008902000889020008890200088902000893
:100120008902000889020008890200088902000883
:100130008902000889020008890200088902000873
:100140008902000889020008890200088902000863
:100150008902000889020008890200088902000853
:100160008902000889020008890200088902000843
:1001700089020008890200088902000800000000C6
:10018000890200088902000800F002F800F044F833
:1001900014A696E8000CB244B344DA4501D100F04D
:1001A0003BF8BAE80F000FA696E83000A5EB04056F
:1001B00004EB0607AAEB0704A7F101074FEA1515A0
:1001C0004FEA3414A4F10104AC4201D300F024F846
:1001D00013F0010F18BFFB1A43F0010300F001F800
:1001E000DBE71847800A0000900A00007047000013
:1001F0000023002400250026103A28BF78C1FBD830
:10020000520728BF30C148BF0B6070471FB500F0D0
:100210001BFD1FBD10B510BD00F057F81146FFF7CC
:10022000F5FF00F071F900F075F803B4FFF7F2FF85
:1002300003BC00F07DF8000017481849184B99429C
:100240003CBF50F8042B41F8042BF8D3154B16494A
:100250004FF000028B4238BF43F8042BFAD3DFF88B
:100260004C00016841F470010160BFF34F8FBFF390
:100270006F8F0F480047FEE7FEE7FEE7FEE7FEE769
:10028000FEE7FEE7FEE7FEE7FEE7000009480A4951
:100290000A4A0B4B70470000740C00080000002055
:1002A00000000020000000206006002088ED00E033
:1002B0008901000860000020600600206002002024
:1002C00060020020704770477047754600F02CF8B8
:1002D000AE4605006946534620F00700854618B033
:1002E00020B5FFF7D3FFBDE820404FF000064FF0E8
:1002F00000074FF000084FF0000BAC46ACE8C00917
:10030000ACE8C009ACE8C009ACE8C00921F00701BD
:100310008D46704710B50446AFF300802046BDE817
:100320001040FFF782BF0000004870470000002027
:1003300001491820ABBEFEE726000200704700000E
:1003400041F24C01C4F20201086840F0010008606B
:100350004FF09041086820F440600860086840F45D
:10036000006008600821C4F60001086840F440609D
:1003700008600C21C4F60001086820F440600860A1
:100380002021C4F60001086820F480100860086885
:1003900040F480100860704741F24C01C4F2020141
:1003A000086840F0010008604FF09041086820F0B4
:1003B00003000860086840F0020008600C21C4F6E1
:1003C0000001086820F0030008602021C4F6000145
:1003D000086820F001000860086840F0020008602A
:1003E0007047000041F25801C4F20201086840F071
:1003F000010008604FF08041086820F0100008609C
:100400002822C4F200024F2010602C22C4F2000205
:1004100040F2E73010601822C4F2000210684FF674
:100420008F73CFF6FE7318401060106840F0200004
:100430001060106840F040001060106840F0080044
:1004400010602022C4F20002106820F00200106048
:10045000106840F0010010603422C4F200024FF432
:10046000FA701060086840F00100086070470000F2
:1004700041F25801C4F20201086840F00800086027
:1004800040F60041C4F20001086820F01000086046
:1004900040F62842C4F200022720106040F62C42A9
:1004A000C4F2000240F2CF70106040F61842C4F26D
:1004B000000210684FF68F73CFF6FE73184010607D
:1004C000106840F020001060106840F0400010609C
:1004D000106840F00800106040F62042C4F20002AC
:1004E000106820F002001060106840F001001060F9
:1004F00040F63442C4F2000232201060086840F036
:10050000010008607047000080B58CB000200B909F
:100510000A9009900890012007900690FFF710FFBD
:10052000FFF73AFFFFF75EFFFFF7A2FFFFE707982D
:1005300090B1FFE73420C4F200000168013101608E
:1005400000682C21C4F200010968884203D1FFE74A
:1005500000200790FFE70CE03420C4F2000001689F
:1005600001390160006818B9FFE701200790FFE733
:10057000FFE73420C4F20000019000682C21C4F28F
:10058000000100910968B0FBF1F000F05EF941EC68
:10059000100B51EC100B9FED260B53EC102B03931B
:1005A000029200F065F941EC100B51EC100B9FED3D
:1005B000220B53EC102B0593049200F041F841EC10
:1005C000100B51EC100B00F0E3F800990246019873
:1005D000089200680968B0FBF1F000F036F9029A61
:1005E000039B41EC100B51EC100B00F041F9049A05
:1005F000059B41EC100B51EC100B00F021F841EC85
:10060000100B51EC100B00F0F3F840F63441C4F23B
:100610000001086000200990FFE70998B0F5967F77
:1006200005DAFFE7FFE7099801300990F5E77EE773
:100630000000000000006940000000000000494088
:1006400010B591EA030F48BF83F0004300F1168212
:10065000841A71EB030C05D2121943EB0C03001B37
:1006600061EB0C014FEA1154A4EB135CDFF81CE1C1
:100670001EEA430F18BF9EEA445F00F0748021EA2F
:10068000045123EA0E0343F48013DCF1200E32D32D
:1006900022FA0CFE10EB0E0023FA0CFE41EB0E01C9
:1006A000CCF1200E03FA0EFE10EB0E00CCF1200E62
:1006B00051F10001B1F5801F32D201EB045112FA61
:1006C0000EF2BDE8104058BF7047401C38BF5FEACB
:1006D000420218BF7047002814BF20F0010041F10A
:1006E00000014FEA410313F5001F38BF7047A1F125
:1006F000C04100F0B5B9012A43EB0302ACF1200C74
:10070000DCF11F0E32BF4FF0000E23FA0CF310EB9A
:10071000030041EB0451B4EB115FD0D0A1EB0451C5
:1007200001F58011490801EB04515FEA30000ED356
:1007300050F1000038BF12FA0EFE08D1BDE810409B
:10074000C9E7401C38BF5FEA4202CAD1C3E7BDE82F
:1007500010404FEA410313F5001F38BF7047A1F165
:10076000C04100F07DB99EEA445F08D011EA5E0FF7
:10077000BDE8104004BF01F0004100207047BDE813
:10078000104070B500F01EF964FBBE3E0000E0FFB3
:100790004FEA41034FEA5353A3F58063D3F11E039D
:1007A000C8BFD3F1210C0CDD4FF0004242EAC12258
:1007B00042EA505232FA03FC8CEAE17CACEBE17085
:1007C0007047102BC4BF0020704703F5787CBCF144
:1007D000FF3F04D06FF0004282EA2100704770B5FD
:1007E00000F0F0F84992248000207047F2E7000002
:1007F0004FEA1153A3F58063D3F11E03A8BFD3F1D1
:10080000200C08DB4FF0004242EAC12252EA50526B
:1008100032FA03F0704709420BD4102BC4BF0020FA
:10082000704703F5787CBCF1FF3F05D04FF0FF30F7
:1008300070474FF00000704770B500F0C3F800BF7C
:100840004992248000207047F0E7B0FA80F310FA54
:1008500003F10AD0C3F11D0303F580634FEA03528D
:100860004FEA415002EBD12170474FF00000704732
:1008700070B5DFF848C11CEA111E1EBF1CEA131533
:100880009EEA0C0F95EA0C0F00F06F8081EA0304DA
:100890004EEAD47EAE4421EA4C1123EA4C1341F4D3
:1008A000801143F48013AEF17F7EA1FB024CA0FBCC
:1008B0000365361955EB0C05A1FB034C4CF1000305
:1008C000A0FB021C16EB0C06654153F10003094224
:1008D00018BF46F0010613F4007F0BD14FEA033135
:1008E0004FEA053041EA155140EA165034036FF0E3
:1008F00003020AE04FEAC3214FEAC52041EA5551FD
:1009000040EA5650F4026FF0020202EB2E4201EB75
:10091000025585EACE710AD05FEA440C18BF24F074
:10092000004450F1000041F1000120EAD47040F28F
:10093000FE7C624500D270BDA84214BF4FF08044D7
:100940004FF04044002E08BF0024BEF1806FA8BFC6
:10095000A1F1C041BDE8704080F2828001F1C04148
:1009600001F000414FF0000070470CEA13159EEAB9
:100970000C0F18BF95EA0C0F06D081EA030E4FF05A
:1009800000000EF0004170BD00F01CF88900013E2F
:1009900000F007B800F009B84FEA430C5FEA5C5C6E
:1009A00008D081EA030100F05BB84FEA410C5FEA2E
:1009B0005C5CF6D102494FF0000070470000FF0771
:1009C0000000F87F0EF1020E2EF0030E5EF8046BAD
:1009D000364205D4012A43EB030515F5001F12D852
:1009E000012841EB010C1CF5001F0CD80ED14FEA79
:1009F000D17C0CEB4C0C0CF1020C15F5001F08BF60
:100A00004CEBD37C04E04FF0080C01E04FEAD37CC0
:100A10000CEB4C0526FA05F606F00706B6F1040CB9
:100A200006D20EEB860CBDE870404CF0010C60471E
:100A3000DFE80CF0090B02024FF00041A1F50021A4
:100A40004FF0000070BD19461046012851EB01041B
:100A500018BFD4F5001484BF002001F0004170BD20
:100A60000808A0F500114FEA3101704710B591EA6E
:100A7000030F48BF83F000433FF5EAAD841A71EBE2
:100A8000030C07D28CF0004C121943EB0C03001B33
:100A900061EB0C014FEA1154A4EB135CDFF8A4E105
:100AA0001EEA430F18BF9EEA445F00F0B48021EABB
:100AB000045123EA6E035242C3EB6E0338BF5B1E40
:100AC000DCF1200E25D322FA0CFE10EB0E0043FAC7
:100AD0000CFE41EB0E01CCF1200E03FA0EFE10EBE2
:100AE0000E00CCF1200E51F1000129D401EB04518C
:100AF00012FA0EF2BDE8104058BF7047401C1CBFF0
:100B0000B2F1004F704700280CBF491C20F00100D3
:100B1000704712EB020E43EB030218BF4FF0010EB9
:100B20004EEA4202ACF1200CDCF11E0E56D943FA1B
:100B30000CFE10EB0E00CCF11E0E51F1FF31D5D59D
:100B40000EF1010E12FA0EFE404141EB010101EBE4
:100B5000445C5FEA5C5C10D901EB045110EBDE7081
:100B600038BFBEF1004FBDE8104018BF70470028E5
:100B70000CBF491C20F00100704734D24FEAD42C3E
:100B800024F4006411F500111BD0B1FA81F20B3A84
:100B9000A41AA41ED2F12003914030FA03F31943A2
:100BA000904001EBCC7101EB0451002CBDE81040EA
:100BB000A8BF704701F1C04101F000414FF00000B3
:100BC0007047B0FA80F310FA03F102D1BDE810408B
:100BD0007047E41A173C4805C90AE2E701EB0451E3
:100BE000BDE81040704749104FEA300001EB045156
:100BF000BDE8104002E04FF0000170474A0008BF16
:100C00000042F8D0B2F5001F28BF704701F0004144
:100C10004FF0000070479EEA445F07D011EA5E0F74
:100C2000BDE8104004BF002100207047BDE810401F
:100C300070B5FFF7C7FE00BF40DFF63E104683F0F9
:100C4000004170470000E0FFF1EE100A4FF6FF711F
:100C5000C0F2C03120EA010040F04070E1EE100A1D
:100C600070470000740C00080000002060060000BF
:040C7000F001000887
:040000050800018965
:00000001FF
