:020000040800F2
:100000006006002039020008770200087902000823
:100010007B0200087D0200087F020008000000004B
:100020000000000000000000000000008102000845
:100030008302000800000000850200088702000813
:100040008902000889020008890200088902000864
:100050008902000889020008890200088902000854
:100060008902000889020008890200088902000844
:100070008902000889020008890200088902000834
:100080008902000889020008890200088902000824
:100090008902000889020008890200088902000814
:1000A0008902000889020008890200088902000804
:1000B00089020008890200088902000889020008F4
:1000C00089020008890200088902000889020008E4
:1000D00089020008890200088902000889020008D4
:1000E00089020008890200088902000889020008C4
:1000F00089020008890200088902000889020008B4
:1001000089020008890200088902000889020008A3
:100110008902000889020008890200088902000893
:100120008902000889020008890200088902000883
:100130008902000889020008890200088902000873
:100140008902000889020008890200088902000863
:100150008902000889020008890200088902000853
:100160008902000889020008890200088902000843
:1001700089020008890200088902000800000000C6
:10018000890200088902000800F002F800F044F833
:1001900014A696E8000CB244B344DA4501D100F04D
:1001A0003BF8BAE80F000FA696E83000A5EB04056F
:1001B00004EB0607AAEB0704A7F101074FEA1515A0
:1001C0004FEA3414A4F10104AC4201D300F024F846
:1001D00013F0010F18BFFB1A43F0010300F001F800
:1001E000DBE718470804000018040000704700000F
:1001F0000023002400250026103A28BF78C1FBD830
:10020000520728BF30C148BF0B6070471FB500F0D0
:10021000E0F91FBD10B510BD00F057F81146FFF70B
:10022000F5FF00F071F900F075F803B4FFF7F2FF85
:1002300003BC00F07DF8000017481849184B99429C
:100240003CBF50F8042B41F8042BF8D3154B16494A
:100250004FF000028B4238BF43F8042BFAD3DFF88B
:100260004C00016841F470010160BFF34F8FBFF390
:100270006F8F0F480047FEE7FEE7FEE7FEE7FEE769
:10028000FEE7FEE7FEE7FEE7FEE7000009480A4951
:100290000A4A0B4B70470000FC05000800000020D4
:1002A00000000020000000206006002088ED00E033
:1002B0008901000860000020600600206002002024
:1002C00060020020704770477047754600F02CF8B8
:1002D000AE4605006946534620F00700854618B033
:1002E00020B5FFF7D3FFBDE820404FF000064FF0E8
:1002F00000074FF000084FF0000BAC46ACE8C00917
:10030000ACE8C009ACE8C009ACE8C00921F00701BD
:100310008D46704710B50446AFF300802046BDE817
:100320001040FFF782BF0000004870470000002027
:1003300001491820ABBEFEE726000200704700000E
:1003400041F24C01C4F20201086840F0010008606B
:100350004FF09041086820F440600860086840F45D
:10036000006008600821C4F60001086840F440609D
:1003700008600C21C4F60001086820F440600860A1
:100380002021C4F60001086820F480100860086885
:1003900040F480100860704741F24C01C4F2020141
:1003A000086840F0010008604FF09041086820F0B4
:1003B00003000860086840F0020008600C21C4F6E1
:1003C0000001086820F0030008602021C4F6000145
:1003D000086820F001000860086840F0020008602A
:1003E0007047000041F25801C4F20201086840F071
:1003F000010008604FF08041086820F0100008609C
:100400002822C4F200024F2010602C22C4F2000205
:1004100040F2E73010601822C4F2000210684FF674
:100420008F73CFF6FE7318401060106840F0200004
:100430001060106840F040001060106840F0080044
:1004400010602022C4F20002106820F00200106048
:10045000106840F0010010603422C4F200024FF432
:10046000FA701060086840F00100086070470000F2
:1004700041F25801C4F20201086840F00800086027
:1004800040F60041C4F20001086820F01000086046
:1004900040F62842C4F200024F20106040F62C4281
:1004A000C4F2000240F2E730106040F61842C4F295
:1004B000000210684FF68F73CFF6FE73184010607D
:1004C000106840F020001060106840F0400010609C
:1004D000106840F00800106040F62042C4F20002AC
:1004E000106820F002001060106840F001001060F9
:1004F00040F63442C4F200024FF4FA70106008680B
:1005000040F001000860704780B584B0002003907F
:10051000012001900090FFF713FFFFF73DFFFFF769
:1005200061FFFFF7A5FFFFE7019890B1FFE73420D7
:10053000C4F2000001680131016000682C21C4F29E
:1005400000010968884203D1FFE700200190FFE71E
:100550000CE03420C4F20000016801390160006839
:1005600018B9FFE701200190FFE7FFE70098A0B16D
:10057000FFE740F63440C4F2000001680131016039
:10058000006840F62C41C4F200010968884203D19A
:10059000FFE700200090FFE70DE040F63440C4F292
:1005A0000000016801390160006818B9FFE7012007
:1005B0000090FFE7FFE700200290FFE70298B0F508
:1005C000967F05DAFFE7FFE7029801300290F5E732
:1005D000AAE7F1EE100A4FF6FF71C0F2C03120EA2F
:1005E000010040F04070E1EE100A7047FC05000881
:0C05F0000000002060060000F001000880
:040000050800018965
:00000001FF
