:020000040800F2
:100000006006002039020008770200087902000823
:100010007B0200087D0200087F020008000000004B
:100020000000000000000000000000008102000845
:100030008302000800000000850200088702000813
:100040008902000889020008890200088902000864
:100050008902000889020008890200088902000854
:100060008902000889020008890200088902000844
:100070008902000889020008890200088902000834
:100080008902000889020008890200088902000824
:100090008902000889020008890200088902000814
:1000A0008902000889020008890200088902000804
:1000B00089020008890200088902000889020008F4
:1000C00089020008890200088902000889020008E4
:1000D00089020008890200088902000889020008D4
:1000E00089020008890200088902000889020008C4
:1000F00089020008890200088902000889020008B4
:1001000089020008890200088902000889020008A3
:100110008902000889020008890200088902000893
:100120008902000889020008890200088902000883
:100130008902000889020008890200088902000873
:100140008902000889020008890200088902000863
:100150008902000889020008890200088902000853
:100160008902000889020008890200088902000843
:1001700089020008890200088902000800000000C6
:10018000890200088902000800F002F800F044F833
:1001900014A696E8000CB244B344DA4501D100F04D
:1001A0003BF8BAE80F000FA696E83000A5EB04056F
:1001B00004EB0607AAEB0704A7F101074FEA1515A0
:1001C0004FEA3414A4F10104AC4201D300F024F846
:1001D00013F0010F18BFFB1A43F0010300F001F800
:1001E000DBE71847280B0000380B000070470000C1
:1001F0000023002400250026103A28BF78C1FBD830
:10020000520728BF30C148BF0B6070471FB500F0D0
:100210006FFD1FBD10B510BD00F057F81146FFF778
:10022000F5FF00F071F900F075F803B4FFF7F2FF85
:1002300003BC00F07DF8000017481849184B99429C
:100240003CBF50F8042B41F8042BF8D3154B16494A
:100250004FF000028B4238BF43F8042BFAD3DFF88B
:100260004C00016841F470010160BFF34F8FBFF390
:100270006F8F0F480047FEE7FEE7FEE7FEE7FEE769
:10028000FEE7FEE7FEE7FEE7FEE7000009480A4951
:100290000A4A0B4B704700001C0D000800000020AC
:1002A00000000020000000206006002088ED00E033
:1002B0008901000860000020600600206002002024
:1002C00060020020704770477047754600F02CF8B8
:1002D000AE4605006946534620F00700854618B033
:1002E00020B5FFF7D3FFBDE820404FF000064FF0E8
:1002F00000074FF000084FF0000BAC46ACE8C00917
:10030000ACE8C009ACE8C009ACE8C00921F00701BD
:100310008D46704710B50446AFF300802046BDE817
:100320001040FFF782BF0000004870470000002027
:1003300001491820ABBEFEE726000200704700000E
:1003400041F24C01C4F20201086840F0010008606B
:100350004FF09041086820F440600860086840F45D
:10036000006008600821C4F60001086840F440609D
:1003700008600C21C4F60001086820F440600860A1
:100380002021C4F60001086820F480100860086885
:1003900040F480100860704741F24C01C4F2020141
:1003A000086840F0010008604FF09041086820F0B4
:1003B00003000860086840F0020008600C21C4F6E1
:1003C0000001086820F0030008602021C4F6000145
:1003D000086820F001000860086840F0020008602A
:1003E0007047000041F25801C4F20201086840F071
:1003F000010008604FF08041086820F0100008609C
:100400002822C4F200024F2010602C22C4F2000205
:1004100040F2E73010601822C4F2000210684FF674
:100420008F73CFF6FE7318401060106840F0200004
:100430001060106840F040001060106840F0080044
:1004400010602022C4F20002106820F00200106048
:10045000106840F0010010603422C4F200024FF432
:10046000FA701060086840F00100086070470000F2
:1004700041F25801C4F20201086840F00800086027
:1004800040F60041C4F20001086820F01000086046
:1004900040F62842C4F200022720106040F62C42A9
:1004A000C4F2000240F2CF70106040F61842C4F26D
:1004B000000210684FF68F73CFF6FE73184010607D
:1004C000106840F020001060106840F0400010609C
:1004D000106840F00800106040F62042C4F20002AC
:1004E000106820F002001060106840F001001060F9
:1004F00040F63442C4F2000232201060086840F036
:10050000010008607047000080B586B000200590AB
:10051000049003900290012001900090FFF710FFDB
:10052000FFF73AFFFFF75EFFFFF7A2FFFFE7019833
:1005300090B1FFE73420C4F200000168013101608E
:1005400000682C21C4F200010968884203D1FFE74A
:1005500000200190FFE70CE03420C4F200000168A5
:1005600001390160006818B9FFE701200190FFE739
:10057000FFE73420C4F20000006800F064FA41ECA8
:10058000100B9FED151B53EC112B51EC100B00F0D1
:10059000D3F841EC100B51EC100B9FED110B53EC09
:1005A000102B00F021F841EC100B51EC100B00F077
:1005B0001DFA40F63441C4F20001086000200390A7
:1005C000FFE70398B0F5967F05DAFFE7FFE70398AA
:1005D00001300390F5E7AAE7000000000000124098
:1005E000000000000000494010B591EA030F48BF29
:1005F00083F0004300F19682841A71EB030C05D25C
:10060000121943EB0C03001B61EB0C014FEA115470
:10061000A4EB135CDFF81CE11EEA430F18BF9EEA4F
:10062000445F00F0748021EA045123EA0E0343F48E
:100630008013DCF1200E32D322FA0CFE10EB0E00F8
:1006400023FA0CFE41EB0E01CCF1200E03FA0EFE54
:1006500010EB0E00CCF1200E51F10001B1F5801F1E
:1006600032D201EB045112FA0EF2BDE8104058BF2D
:100670007047401C38BF5FEA420218BF704700282D
:1006800014BF20F0010041F100014FEA410313F5CE
:10069000001F38BF7047A1F1C04100F035BA012AF0
:1006A00043EB0302ACF1200CDCF11F0E32BF4FF024
:1006B000000E23FA0CF310EB030041EB0451B4EBF2
:1006C000115FD0D0A1EB045101F58011490801EB75
:1006D00004515FEA30000ED350F1000038BF12FA27
:1006E0000EFE08D1BDE81040C9E7401C38BF5FEAE4
:1006F0004202CAD1C3E7BDE810404FEA410313F5F7
:10070000001F38BF7047A1F1C04100F0FDB99EEA5B
:10071000445F08D011EA5E0FBDE8104004BF01F04D
:10072000004100207047BDE8104070B500F09EF910
:1007300064FBBE3E0000E0FF2DE9C04130B4DFF8AD
:10074000A4C23CEA111418BF3CEA131400F0ED8077
:100750001CEA111481EA030544EAD57418BF1CEAA7
:10076000131500F0C880A4EB050404F17F7404F5B0
:1007700000344FF0004545EAC12145EAC32341EA70
:10078000505143EA52534FEAC0204FEAC2229942E5
:1007900008BF904200F09D804FEA13650FF24416A7
:1007A000765D4FEA134506FB05F7C7F1807706FB38
:1007B00007F74FEAD737A7FB03687642A7FB06CEB9
:1007C000C8F5803838BFA8F1010807FB08E6A6FB8A
:1007D000028C4FF0000EE6FB03CEDCF1000CCEF1F4
:1007E000004E38BFAEF1010EA6FB0C584FF00007CB
:1007F000E6FB0E87A1FB08C6A0FB07CE16EB0E0694
:100800004FF0000545F10005E1FB076515F1E04EED
:100810007EBFA4F580345FEA46066D4116F180077D
:1008200045F100054FEA172747EA05674FEA152506
:100830004FEA0666A6F1DE46B6F1805F20D938465B
:1008400005EBC47124F0010C01EB0C11BCF1FE6F3F
:1008500002D8F0BCBDE8008124425CBF01F5801ED7
:100860009EEAC47F02D4F0BCBDE80081244200F1BE
:100870003980A1F1C041F0BCBDE8004100F044B9AD
:100880004FEAD02040EA41504FEAD1214FEAD2222C
:1008900042EA43524FEAD323A7FB028607FB0366D3
:1008A00005FB02661EEA0E0F58BFA6EB0056B6EB1C
:1008B00000564FEA520E4EEAC37E18EB0E0E56EB70
:1008C000530EBCD518EB02085E417F1C55F10005A4
:1008D000B5E74FF480154FF000074FF000064FF0DA
:1008E0000008ACE701F1C04101F000414FF0000009
:1008F000F0BCBDE800810CEA131511EA0C1F00D012
:100900000CE013EA0C1F00F026804FF0000081EA93
:10091000030101F00041F0BCBDE80081F0BCBDE87E
:10092000004181EA030100F0EFB8F0BCBDE80041EE
:1009300070B500F09BF800BF097EFC3E00F007B8E0
:100940004FF0000081EA030101F00041704781EAA5
:10095000030100F0D9B8F0BCBDE8004122494FF0D6
:1009600000007047FFFDFBF9F7F5F4F2F0EEEDEB58
:10097000E9E8E6E4E3E1E0DEDDDBDAD8D7D5D4D39D
:10098000D1D0CFCDCCCBCAC8C7C6C5C4C2C1C0BFE9
:10099000BEBDBCBBBAB9B8B7B6B5B4B3B2B1B0AFEF
:1009A000AEADACABAAA9A8A8A7A6A5A4A3A3A2A1D3
:1009B000A09F9F9E9D9C9C9B9A999998979796958E
:1009C00095949393929191908F8F8E8E8D8C8C8B2A
:1009D0008B8A8989888887878685858484838382B2
:1009E000828181800000FF070000F87F4FEA1153E9
:1009F000A3F58063D3F11E03A8BFD3F1200C08DB5D
:100A00004FF0004242EAC12252EA505232FA03F059
:100A1000704709420BD4102BC4BF0020704703F568
:100A2000787CBCF1FF3F05D04FF0FF3070474FF0AE
:100A30000000704770B500F019F800BF499224809B
:100A400000207047F0E7B0FA80F310FA03F10AD003
:100A5000C3F11D0303F580634FEA03524FEA41508F
:100A600002EBD12170474FF0000070470EF1020EEB
:100A70002EF0030E5EF8046B364205D4012A43EBD8
:100A8000030515F5001F12D8012841EB010C1CF5D8
:100A9000001F0CD80ED14FEAD17C0CEB4C0C0CF1A2
:100AA000020C15F5001F08BF4CEBD37C04E04FF09F
:100AB000080C01E04FEAD37C0CEB4C0526FA05F656
:100AC00006F00706B6F1040C06D20EEB860CBDE864
:100AD00070404CF0010C6047DFE80CF0090B02029B
:100AE0004FF00041A1F500214FF0000070BD194604
:100AF0001046012851EB010418BFD4F5001484BF3F
:100B0000002001F0004170BD0808A0F500114FEA77
:100B10003101704710B591EA030F48BF83F00043DD
:100B20003FF56AAD841A71EB030C07D28CF0004CD0
:100B3000121943EB0C03001B61EB0C014FEA11543B
:100B4000A4EB135CDFF8A4E11EEA430F18BF9EEA92
:100B5000445F00F0B48021EA045123EA6E0352425C
:100B6000C3EB6E0338BF5B1EDCF1200E25D322FAE7
:100B70000CFE10EB0E0043FA0CFE41EB0E01CCF123
:100B8000200E03FA0EFE10EB0E00CCF1200E51F1F8
:100B9000000129D401EB045112FA0EF2BDE8104015
:100BA00058BF7047401C1CBFB2F1004F704700286F
:100BB0000CBF491C20F00100704712EB020E43EB02
:100BC000030218BF4FF0010E4EEA4202ACF1200CB6
:100BD000DCF11E0E56D943FA0CFE10EB0E00CCF1E0
:100BE0001E0E51F1FF31D5D50EF1010E12FA0EFE97
:100BF000404141EB010101EB445C5FEA5C5C10D9D0
:100C000001EB045110EBDE7038BFBEF1004FBDE8C0
:100C1000104018BF704700280CBF491C20F001008D
:100C2000704734D24FEAD42C24F4006411F500113B
:100C30001BD0B1FA81F20B3AA41AA41ED2F1200300
:100C4000914030FA03F31943904001EBCC7101EB72
:100C50000451002CBDE81040A8BF704701F1C0410D
:100C600001F000414FF000007047B0FA80F310FA35
:100C700003F102D1BDE810407047E41A173C480563
:100C8000C90AE2E701EB0451BDE810407047491082
:100C90004FEA300001EB0451BDE8104002E04FF094
:100CA000000170474A0008BF0042F8D0B2F5001FAB
:100CB00028BF704701F000414FF0000070479EEAE6
:100CC000445F07D011EA5E0FBDE8104004BF002169
:100CD00000207047BDE8104070B5FFF7C7FE00BFA9
:100CE00040DFF63E104683F0004170470000E0FF11
:100CF000F1EE100A4FF6FF71C0F2C03120EA010098
:100D000040F04070E1EE100A704700001C0D000832
:0C0D10000000002060060000F001000858
:040000050800018965
:00000001FF
