:020000040800F2
:10000000680600203902000877020008790200081B
:100010007B0200087D0200087F020008000000004B
:100020000000000000000000000000008102000845
:10003000830200080000000085020008C5030008D4
:100040008902000889020008890200088902000864
:100050008902000889020008890200088902000854
:100060008902000889020008890200088902000844
:100070008902000889020008890200088902000834
:100080008902000889020008890200088902000824
:100090008902000889020008890200088902000814
:1000A0008902000889020008890200088902000804
:1000B00089020008890200088902000889020008F4
:1000C00089020008890200088902000889020008E4
:1000D00089020008890200088902000889020008D4
:1000E00089020008890200088902000889020008C4
:1000F00089020008890200088902000889020008B4
:1001000089020008890200088902000889020008A3
:100110008902000889020008890200088902000893
:100120008902000889020008890200088902000883
:100130008902000889020008890200088902000873
:100140008902000889020008890200088902000863
:100150008902000889020008890200088902000853
:100160008902000889020008890200088902000843
:1001700089020008890200088902000800000000C6
:10018000890200088902000800F002F800F044F833
:1001900014A696E8000CB244B344DA4501D100F04D
:1001A0003BF8BAE80F000FA696E83000A5EB04056F
:1001B00004EB0607AAEB0704A7F101074FEA1515A0
:1001C0004FEA3414A4F10104AC4201D300F024F846
:1001D00013F0010F18BFFB1A43F0010300F001F800
:1001E000DBE7184788030000980300007047000011
:1001F0000023002400250026103A28BF78C1FBD830
:10020000520728BF30C148BF0B6070471FB500F0D0
:100210009FF91FBD10B510BD00F057F81146FFF74C
:10022000F5FF00F083F900F075F803B4FFF7F2FF73
:1002300003BC00F07DF8000017481849184B99429C
:100240003CBF50F8042B41F8042BF8D3154B16494A
:100250004FF000028B4238BF43F8042BFAD3DFF88B
:100260004C00016841F470010160BFF34F8FBFF390
:100270006F8F0F480047FEE7FEE7FEE7FEE7FEE769
:10028000FEE7FEE7FEE7FEE7FEE7000009480A4951
:100290000A4A0B4B704700007C0500080000002054
:1002A00000000020000000206806002088ED00E02B
:1002B000890100086800002068060020680200200C
:1002C00068020020704770477047754600F02CF8B0
:1002D000AE4605006946534620F00700854618B033
:1002E00020B5FFF7D3FFBDE820404FF000064FF0E8
:1002F00000074FF000084FF0000BAC46ACE8C00917
:10030000ACE8C009ACE8C009ACE8C00921F00701BD
:100310008D46704710B50446AFF300802046BDE817
:100320001040FFF782BF0000004870470000002027
:1003300001491820ABBEFEE726000200704700000E
:100340001421C4F60001086820F0200008607047FE
:100350001421C4F60001086840F0200008607047CE
:1003600080B51420C4F6000000688006002803D57C
:10037000FFE7FFF7E5FF02E0FFF7EAFFFFE780BDD9
:1003800041F24C01C4F20201086840F0010008602B
:100390004FF09041086820F440600860086840F41D
:1003A000806008600421C4F60001086820F0200085
:1003B00008600C21C4F60001086820F44060086061
:1003C0007047000040F26001C2F20001086801308D
:1003D0000860704780B582B04EF21001CEF2000185
:1003E0000191002008604EF21402CEF2000240F2A9
:1003F000E73111604EF21801CEF2000108604FF0B3
:10040000FF30009000F040F80098012100F054F80F
:100410000199086840F002000860086820F00400B4
:100420000860086840F00100086002B080BD00006C
:1004300081B041F20801C4F20201086820F0030013
:10044000086041F20001C4F202010091086820F046
:10045000F0000860086840F070000860086840F02C
:1004600008000860086840F001000860FFE741F2FA
:100470000000C4F2020000688007002801D4FFE7F2
:10048000F5E701B07047000081B08DF803009DF9D9
:10049000030000280ED4FFE79DF9031001F01F02AE
:1004A000012090404A094EF20011CEF2000141F8BD
:1004B0002200FFE701B0704782B08DF8070000917D
:1004C0009DF9070000280AD4FFE7009800019DF974
:1004D00007104EF20042CEF2000288540BE0009862
:1004E00000019DF8071001F00F014EF61452CEF2F4
:1004F00000028854FFE702B07047000082B001900C
:1005000040F26000C2F2000000680090FFE740F295
:100510006000C2F2000000680099401A0199884208
:1005200001D2FFE7F3E702B07047000080B582B068
:1005300000200190FFF77CFFFFF74CFFFFF720FF43
:10054000FFE74FF47A70FFF7D9FFFFF709FFF8E7ED
:10055000F1EE100A4FF6FF71C0F2C03120EA01003F
:1005600040F04070E1EE100A704700007C05000882
:0C0570000000002068060000F0010008F8
:040000050800018965
:00000001FF
